:0400000080313828EB
:100008007E1480318B1E09280A2812280B1D0D2802
:100018000E28122882319222803136280B1F15288B
:10002800162836282100101E1A281B2826282000EA
:10003800101E1F282028262856088A0055080A005E
:10004800803136282100901E2A282B2836282000A7
:10005800901E2F283028362854088A0053080A0092
:10006800803136287E10090080313A288231972263
:100078008031DC00823198228031DD008231992282
:100088008031DE0082319A228031DF00FB01FC01E1
:1000980020308400003085002D3082316E2280317E
:1000A8007E102000803158288231492280318B17F8
:1000B8000B172000D901D90AD801D80A8031AB2002
:1000C800803120008D13A330F4008230F500F60152
:1000D800F60A813154218031F90079082000D700CF
:1000E8005708031D7828792867285F30F400823084
:1000F800F5000630F9007908F60081315421803185
:10010800FA007A082000D7005708031D8C288D288C
:1001180067288131F32180318131AC218031200081
:10012800581897289A2820008E179C2820008E138C
:10013800581C9F28A22820008E15A42820008E1164
:100148000130F9007908D80767288031382821005C
:100158009012EA30F1000030F20082317A228031C8
:1001680021001012D130F1000130F20082317422E6
:100178008031083023009F0090309D0024309E007D
:1001880067309B009C01A530F1000230F2008231FB
:10019800862280319B30F1000230F20082318022C9
:1001A80080319F30F1000230F20082318C228031A0
:1001B8002000C901CC01CB010830F3007308DB0033
:1001C800FC01FB01CA012100901608007C082A3EA8
:1001D80086008701810123001D1DF328F428FF28CC
:1001E8007C082A3E860087018114200052088A0074
:1001F80051080A00803123009D1C032904290F2976
:100208007C082A3E860087010115200050088A00D4
:100218004F080A0081317C082A3E860087010108C0
:100228000319172918291F2920004E088A004D088C
:100238000A008131222982311022803108002200EF
:100248008C018D018E01373021008C0030308D00FB
:1002580037308E00073023008E0090308D00173025
:100268008C0024008D018C018E012100951725003A
:100278008C018D018E01373026008C00F0308D0006
:10028800FF308E003F3027008C00F0308D00FF30AB
:100298008E000D303C00A40012303D009F00080085
:1002A8002000E101E10AE201762982312A22813126
:1002B800F70077082000E0007508F8007408F700D8
:1002C800F40A0319F50A77088400780885000008FD
:1002D80060060319702971297429E101E201E20A13
:1002E8000130F602760803197A297B2980296103EF
:1002F80003197F29802959296208080020004A0823
:1003080003198729882982297B082A3E86008701C4
:100318000108F1007108C9007B08323E8600870198
:100328000108F1007108F2000130F1007108FB07C3
:1003380008307B02031CA129A229A329FB01210063
:10034800901201302000CA0221009016720808009D
:10035800F60182312A2281310130F4007408F6074F
:1003680003307602031CB929BA29AD2982312A2221
:100378008131F4007408F5007518C329C6292000D6
:100388000D17C82920000D137518CB29CE29200078
:100398000E17D02920000E130800083020005B0239
:1003A8000318D729D829F0294B083A3E8600870137
:1003B800010823009A000130F00070082000CB07E4
:1003C80008304B02031CE929EA29EB29CB0101304B
:1003D800F0007008DB07F229210010120800200045
:1003E8005903031DF829F9290F2AD901F50182318A
:1003F8002A228131F4007508203E8600870174089E
:1004080081000130F4007408F5070A307502031CF6
:100418000E2A0F2AFB29080023001908F0007C087F
:10042800323E86008701700881000130F0007008B4
:10043800FC0708307C02031C222A232A242AFC01F8
:100448000130F00070082000CA07080082315622E7
:100458008231003A0319312A322A2A2A813182212B
:100468008231F30073082000C70047080800210004
:100478001508C039173895009E30200095009E3029
:10048800F1007108DA000B11080081312321823153
:1004980082316722823182313B2282318031AB2026
:1004A8008231080020004A08031D5B2A5D2A0130BA
:1004B8005E2A00300800473450344734473441340A
:1004C8002C34203400346A3021009900980122002D
:1004D80096010800640080010131890B6F2A0034FD
:1004E80072082000D6007108D500080072082000A4
:1004F800D4007108D300080072082000D0007108E9
:10050800CF00080072082000D2007108D10008004E
:1005180072082000CE007108CD0008000B112000E1
:100528005A0895000800A33482345F3482342300CB
:100538001D121D1608008231102282310800243451
:040548000034080073
:020000040001F9
:06000E00FC3FFF3E9F3F96
:00000001FF
